S01A000054656D70657261747572655F53656E736F722E73726563A3
S11300000C9496000C94AB000C94AB000C94AB00D5
S11300100C94AB000C94AB000C94AB000C94AB00B0
S11300200C94AB000C94AB000C94AB000C94AB00A0
S11300300C94AB000C94AB000C94AB000C94AB0090
S11300400C94AB000C94AB000C94AB000C94AB0080
S11300500C94AB0005011E013701500168016801D1
S11300606801680168016801680168016801680144
S11300706801680168016801680168016801680134
S11300806801680168016801680168016801680124
S11300906801680105011E013701500175018E01D7
S11300A0A701C001D801D801D801D801D801D801CD
S11300B0D801D801D801D801D801D801D801D80174
S11300C0D801D801D801D801D801D801D801D80164
S11300D0D801D801D801D801D801D80175018E0101
S11300E0A701C001E601ED01F401FB0101020102D7
S11300F001020102010201020102010201020102E4
S113010001020102010201020102010201020102D3
S113011001020102010201020102010201020102C3
S113012001020102E601ED01F401FB0111241FBEED
S1130130CFE5D8E0DEBFCDBF10E0A0E6B0E0E8E553
S1130140F9E002C005900D92A636B107D9F70E94D6
S1130150F2020C94AA040C940000813059F018F0B7
S1130160833061F011C087B18F7B87B987B18F77F6
S113017087B90AC087B1806487B906C087B1806433
S113018087B987B1806887B986B1806886B986B136
S1130190846086B986B1826086B9613031F486B1F3
S11301A0806286B980B7806480BF413079F487B1BA
S11301B08E7F87B987B18D7F87B987B18B7F87B9E8
S11301C087B1877F87B987B1806187B9213021F4EE
S11301D0789486B1886086B9089586B1806486B9BA
S11301E03699FECF24B185B190E0982F8827822BD1
S11301F0089590E0FC01E154F109E432F10508F0BE
S113020067C0E65DFF4F0C949504413059F42AB35E
S113021081E090E002C0880F991F6A95E2F7822B73
S11302208ABB08952AB381E090E002C0880F991F29
S11302306A95E2F7809582238ABB0895413059F488
S113024027B381E090E002C0880F991F6A95E2F716
S1130250822B87BB089527B381E090E002C0880F0A
S1130260991F6A95E2F78095822387BB08954130F0
S113027059F424B381E090E002C0880F991F6A9575
S1130280E2F7822B84BB089524B381E090E002C09E
S1130290880F991F6A95E2F78095822384BB08959D
S11302A0413059F421B381E090E002C0880F991FD6
S11302B06A95E2F7822B81BB089521B381E090E037
S11302C002C0880F991F6A95E2F78095822381BB4B
S11302D0089590E0FC01E154F109E432F10508F0DD
S11302E067C0E25BFF4F0C949504413059F42BB383
S11302F081E090E002C0880F991F6A95E2F7822B93
S11303008BBB08952BB381E090E002C0880F991F46
S11303106A95E2F7809582238BBB0895413059F4A6
S113032028B381E090E002C0880F991F6A95E2F734
S1130330822B88BB089528B381E090E002C0880F27
S1130340991F6A95E2F78095822388BB089541300E
S113035059F425B381E090E002C0880F991F6A9593
S1130360E2F7822B85BB089525B381E090E002C0BB
S1130370880F991F6A95E2F78095822385BB0895BB
S1130380413059F422B381E090E002C0880F991FF4
S11303906A95E2F7822B82BB089522B381E090E054
S11303A002C0880F991F6A95E2F78095822382BB69
S11303B008956295607F90E0FC01E154F109E43214
S11303C0F105F8F4EE58FF4F0C9495048BB38F703D
S11303D08BBB8BB3682B6BBB089588B38F7088BBC2
S11303E088B3682B68BB089585B38F7085BB85B3CC
S11303F0682B65BB089582B38F7082BB82B3682B70
S113040062BB089541E060E082E60E94690183EFE7
S113041091E00197F1F700C0000040E060E082E65F
S11304200E94690189EF90E00197F1F700C0000094
S11304300895CF93C82F682F62956F7081E40E944E
S1130440D90140E061E082E40E9469010E94020255
S11304506C2F81E40E94D90140E061E082E40E94B3
S113046069010E94020289EF90E00197F1F700C050
S11304700000CF9108958FE19EE40197F1F700C049
S1130480000041E064E081E40E94F90041E065E09D
S113049081E40E94F90041E066E081E40E94F900F1
S11304A041E067E081E40E94F90041E060E082E419
S11304B00E94F90041E062E082E40E94F90041E018
S11304C061E082E40E94F90040E062E082E40E947C
S11304D0690182E00E94190283EC99E00197F1F727
S11304E000C0000088E20E94190289EF90E00197A1
S11304F0F1F700C000008CE00E94190289EF90E03F
S11305000197F1F700C0000081E00E94190283EC1A
S113051099E00197F1F700C0000086E00E941902FB
S113052089EF90E00197F1F700C000000895CF93A0
S1130530C82F682F62956F7081E40E94D90141E051
S113054061E082E40E9469010E9402026C2F81E44E
S11305500E94D90141E061E082E40E9469010E94A5
S1130560020289EF90E00197F1F700C00000CF91FB
S11305700895CF93DF93EC0103C00E949702219664
S113058088818111FACFDF91CF91089581E00E9493
S1130590190283EC99E00197F1F700C00000089577
S11305A09FEF980F923070F4613170F4662371F00C
S11305B0813019F48FE7860F0CC0823049F48FEB39
S11305C0860F07C080E805C080E803C080E801C04A
S11305D080E00E94190289EF90E00197F1F700C0D2
S11305E0000008950E943B0220E041E060E083E0C7
S11305F00E94AD000E94C60280E690E00E94B9020B
S11306000E94ED00BC0180E090E00E949A0320E08B
S113061030E040E250E40E9400040E946B03683E14
S113062023E0720798F09B01285E3340ADECBCECEC
S11306300E949B04969587959695879596958795A0
S1130640C82F66E081E00E94D00216C028EE33E095
S1130650261B370BADECBCEC0E949B04969587954A
S11306609695879596958795C82F66E081E00E94B8
S1130670D0028DE20E949702CA3070F480E38C0F9E
S11306800E9497028FED0E94970283E60E949702D0
S113069080E20E949702B4CFCB3008F4B1CFDDECF6
S11306A0CD9FD12D1124D695D695D69580E38D0F67
S11306B00E949702DD0F8D2F880F880FD80F8C2F83
S11306C08D1B805D0E9497028FED0E94970283E646
S11306D00E94970295CF0E94DF0388F09F5798F0FD
S11306E0B92F9927B751B0F0E1F0660F771F881F33
S11306F0991F1AF0BA95C9F714C0B13091F00E944D
S1130700F903B1E008950C94F903672F782F882733
S1130710B85F39F0B93FCCF3869577956795B39573
S1130720D9F73EF490958095709561957F4F8F4FE2
S11307309F4F0895E89409C097FB3EF490958095E7
S1130740709561957F4F8F4F9F4F9923A9F0F92F93
S113075096E9BB279395F695879577956795B79511
S1130760F111F8CFFAF4BB0F11F460FF1BC06F5FF7
S11307707F4F8F4F9F4F16C0882311F096E911C009
S1130780772321F09EE8872F762F05C0662371F02A
S113079096E8862F70E060E02AF09A95660F771F3E
S11307A0881FDAF7880F9695879597F9089557FD6E
S11307B09058440F551F59F05F3F71F04795880FCB
S11307C097FB991F61F09F3F79F087950895121662
S11307D013061406551FF2CF4695F1DF08C016160E
S11307E017061806991FF1CF8695710561050894BF
S11307F00895E894BB2766277727CB0197F90895D6
S11308000E9413040C9484040E94760438F00E941D
S11308107D0420F0952311F00C946D040C94730462
S113082011240C94FA030E94D70370F3959FC1F32B
S1130830950F50E0551F629FF001729FBB27F00D8A
S1130840B11D639FAA27F00DB11DAA1F649F6627DF
S1130850B00DA11D661F829F2227B00DA11D621F2E
S1130860739FB00DA11D621F839FA00D611D221FE8
S1130870749F3327A00D611D231F849F600D211DCC
S1130880822F762F6A2F11249F5750409AF0F1F04F
S113089088234AF0EE0FFF1FBB1F661F771F881FB8
S11308A091505040A9F79E3F510580F00C946D047F
S11308B00C94FA035F3FE4F3983ED4F3869577955E
S11308C06795B795F795E7959F5FC1F7FE2B880F5E
S11308D0911D9695879597F9089597F99F6780E8F4
S11308E070E060E008959FEF80EC089500240A947E
S11308F01616170618060906089500240A941216F7
S11309001306140605060895092E0394000C11F429
S1130910882352F0BB0F40F4BF2B11F460FF04C0D6
S11309206F5F7F4F8F4F9F4F0895EE0FFF1F05900E
S1130930F491E02D0994A29FB001B39FC001A39F3D
S1130940700D811D1124911DB29F700D811D112404
S10B0950911D0895F894FFCFF6
S109095874656D703D00A2
S9030000FC
